{
  "contractName": "KYCVerification",
  "abi": [
    {
      "inputs": [
        {
          "internalType": "address",
          "name": "_authority",
          "type": "address"
        }
      ],
      "stateMutability": "nonpayable",
      "type": "constructor"
    },
    {
      "anonymous": false,
      "inputs": [
        {
          "indexed": true,
          "internalType": "address",
          "name": "user",
          "type": "address"
        },
        {
          "indexed": false,
          "internalType": "string",
          "name": "aadhaarNumber",
          "type": "string"
        }
      ],
      "name": "AadhaarRegistered",
      "type": "event"
    },
    {
      "anonymous": false,
      "inputs": [
        {
          "indexed": true,
          "internalType": "address",
          "name": "user",
          "type": "address"
        },
        {
          "indexed": false,
          "internalType": "enum KYCVerification.KYCStatus",
          "name": "status",
          "type": "uint8"
        }
      ],
      "name": "AadhaarVerified",
      "type": "event"
    },
    {
      "inputs": [],
      "name": "authority",
      "outputs": [
        {
          "internalType": "address",
          "name": "",
          "type": "address"
        }
      ],
      "stateMutability": "view",
      "type": "function",
      "constant": true
    },
    {
      "inputs": [
        {
          "internalType": "uint256",
          "name": "",
          "type": "uint256"
        }
      ],
      "name": "users",
      "outputs": [
        {
          "internalType": "address",
          "name": "",
          "type": "address"
        }
      ],
      "stateMutability": "view",
      "type": "function",
      "constant": true
    },
    {
      "inputs": [
        {
          "internalType": "string",
          "name": "_name",
          "type": "string"
        },
        {
          "internalType": "string",
          "name": "_aadhaarNumber",
          "type": "string"
        }
      ],
      "name": "registerAadhaar",
      "outputs": [],
      "stateMutability": "nonpayable",
      "type": "function"
    },
    {
      "inputs": [
        {
          "internalType": "address",
          "name": "_user",
          "type": "address"
        },
        {
          "internalType": "enum KYCVerification.KYCStatus",
          "name": "_status",
          "type": "uint8"
        }
      ],
      "name": "verifyAadhaar",
      "outputs": [],
      "stateMutability": "nonpayable",
      "type": "function"
    },
    {
      "inputs": [
        {
          "internalType": "address",
          "name": "_user",
          "type": "address"
        }
      ],
      "name": "getUserKYCDetails",
      "outputs": [
        {
          "internalType": "string",
          "name": "name",
          "type": "string"
        },
        {
          "internalType": "string",
          "name": "aadhaarNumber",
          "type": "string"
        },
        {
          "internalType": "enum KYCVerification.KYCStatus",
          "name": "status",
          "type": "uint8"
        },
        {
          "internalType": "uint256",
          "name": "submissionTime",
          "type": "uint256"
        },
        {
          "internalType": "uint256",
          "name": "verificationTime",
          "type": "uint256"
        }
      ],
      "stateMutability": "view",
      "type": "function",
      "constant": true
    },
    {
      "inputs": [
        {
          "internalType": "address",
          "name": "_user",
          "type": "address"
        }
      ],
      "name": "getVerificationStatus",
      "outputs": [
        {
          "internalType": "enum KYCVerification.KYCStatus",
          "name": "status",
          "type": "uint8"
        }
      ],
      "stateMutability": "view",
      "type": "function",
      "constant": true
    },
    {
      "inputs": [],
      "name": "getAllUserApplications",
      "outputs": [
        {
          "internalType": "address[]",
          "name": "",
          "type": "address[]"
        }
      ],
      "stateMutability": "view",
      "type": "function",
      "constant": true
    }
  ],
  "bytecode": "0x60806040523480156200001157600080fd5b50604051620016243803806200162483398181016040528101906200003791906200015b565b600073ffffffffffffffffffffffffffffffffffffffff168173ffffffffffffffffffffffffffffffffffffffff1603620000a9576040517f08c379a0000000000000000000000000000000000000000000000000000000008152600401620000a090620001ee565b60405180910390fd5b80600260006101000a81548173ffffffffffffffffffffffffffffffffffffffff021916908373ffffffffffffffffffffffffffffffffffffffff1602179055505062000210565b600080fd5b600073ffffffffffffffffffffffffffffffffffffffff82169050919050565b60006200012382620000f6565b9050919050565b620001358162000116565b81146200014157600080fd5b50565b60008151905062000155816200012a565b92915050565b600060208284031215620001745762000173620000f1565b5b6000620001848482850162000144565b91505092915050565b600082825260208201905092915050565b7f496e76616c696420617574686f72697479206164647265737300000000000000600082015250565b6000620001d66019836200018d565b9150620001e3826200019e565b602082019050919050565b600060208201905081810360008301526200020981620001c7565b9050919050565b61140480620002206000396000f3fe608060405234801561001057600080fd5b506004361061007d5760003560e01c8063bf7e214f1161005b578063bf7e214f14610100578063c55b00191461011e578063e315db781461013a578063f054ed97146101565761007d565b8063365b98b2146100825780636103681a146100b25780639f590fa2146100e2575b600080fd5b61009c600480360381019061009791906109f5565b61018a565b6040516100a99190610a63565b60405180910390f35b6100cc60048036038101906100c79190610aaa565b6101c9565b6040516100d99190610b4e565b60405180910390f35b6100ea610221565b6040516100f79190610c27565b60405180910390f35b61010861033f565b6040516101159190610a63565b60405180910390f35b61013860048036038101906101339190610c6e565b610365565b005b610154600480360381019061014f9190610df4565b610586565b005b610170600480360381019061016b9190610aaa565b6107b7565b604051610181959493929190610f03565b60405180910390f35b6001818154811061019a57600080fd5b906000526020600020016000915054906101000a900473ffffffffffffffffffffffffffffffffffffffff1681565b60008060008373ffffffffffffffffffffffffffffffffffffffff1673ffffffffffffffffffffffffffffffffffffffff16815260200190815260200160002060020160009054906101000a900460ff169050919050565b6060600260009054906101000a900473ffffffffffffffffffffffffffffffffffffffff1673ffffffffffffffffffffffffffffffffffffffff163373ffffffffffffffffffffffffffffffffffffffff16146102b3576040517f08c379a00000000000000000000000000000000000000000000000000000000081526004016102aa90610fd6565b60405180910390fd5b600180548060200260200160405190810160405280929190818152602001828054801561033557602002820191906000526020600020905b8160009054906101000a900473ffffffffffffffffffffffffffffffffffffffff1673ffffffffffffffffffffffffffffffffffffffff16815260200190600101908083116102eb575b5050505050905090565b600260009054906101000a900473ffffffffffffffffffffffffffffffffffffffff1681565b600260009054906101000a900473ffffffffffffffffffffffffffffffffffffffff1673ffffffffffffffffffffffffffffffffffffffff163373ffffffffffffffffffffffffffffffffffffffff16146103f5576040517f08c379a00000000000000000000000000000000000000000000000000000000081526004016103ec90610fd6565b60405180910390fd5b60008060008473ffffffffffffffffffffffffffffffffffffffff1673ffffffffffffffffffffffffffffffffffffffff168152602001908152602001600020600101805461044390611025565b905011610485576040517f08c379a000000000000000000000000000000000000000000000000000000000815260040161047c906110a2565b60405180910390fd5b806000808473ffffffffffffffffffffffffffffffffffffffff1673ffffffffffffffffffffffffffffffffffffffff16815260200190815260200160002060020160006101000a81548160ff021916908360028111156104e9576104e8610ad7565b5b0217905550426000808473ffffffffffffffffffffffffffffffffffffffff1673ffffffffffffffffffffffffffffffffffffffff168152602001908152602001600020600401819055508173ffffffffffffffffffffffffffffffffffffffff167fe1cadf2486227f9eabb9a97cc0814466688206eb41b0caf511c61118f0cfe54b8260405161057a9190610b4e565b60405180910390a25050565b60008060003373ffffffffffffffffffffffffffffffffffffffff1673ffffffffffffffffffffffffffffffffffffffff16815260200190815260200160002060010180546105d490611025565b905014610616576040517f08c379a000000000000000000000000000000000000000000000000000000000815260040161060d9061110e565b60405180910390fd5b6040518060a001604052808381526020018281526020016000600281111561064157610640610ad7565b5b815260200142815260200160008152506000803373ffffffffffffffffffffffffffffffffffffffff1673ffffffffffffffffffffffffffffffffffffffff16815260200190815260200160002060008201518160000190816106a491906112da565b5060208201518160010190816106ba91906112da565b5060408201518160020160006101000a81548160ff021916908360028111156106e6576106e5610ad7565b5b021790555060608201518160030155608082015181600401559050506001339080600181540180825580915050600190039060005260206000200160009091909190916101000a81548173ffffffffffffffffffffffffffffffffffffffff021916908373ffffffffffffffffffffffffffffffffffffffff1602179055503373ffffffffffffffffffffffffffffffffffffffff167febffd74307f86cd4494f17cc21125bc6680d63c702fff5c2939e1338003d0ab2826040516107ab91906113ac565b60405180910390a25050565b6060806000806000806000808873ffffffffffffffffffffffffffffffffffffffff1673ffffffffffffffffffffffffffffffffffffffff1681526020019081526020016000206040518060a001604052908160008201805461081990611025565b80601f016020809104026020016040519081016040528092919081815260200182805461084590611025565b80156108925780601f1061086757610100808354040283529160200191610892565b820191906000526020600020905b81548152906001019060200180831161087557829003601f168201915b505050505081526020016001820180546108ab90611025565b80601f01602080910402602001604051908101604052809291908181526020018280546108d790611025565b80156109245780601f106108f957610100808354040283529160200191610924565b820191906000526020600020905b81548152906001019060200180831161090757829003601f168201915b505050505081526020016002820160009054906101000a900460ff16600281111561095257610951610ad7565b5b600281111561096457610963610ad7565b5b815260200160038201548152602001600482015481525050905080600001518160200151826040015183606001518460800151955095509550955095505091939590929450565b6000604051905090565b600080fd5b600080fd5b6000819050919050565b6109d2816109bf565b81146109dd57600080fd5b50565b6000813590506109ef816109c9565b92915050565b600060208284031215610a0b57610a0a6109b5565b5b6000610a19848285016109e0565b91505092915050565b600073ffffffffffffffffffffffffffffffffffffffff82169050919050565b6000610a4d82610a22565b9050919050565b610a5d81610a42565b82525050565b6000602082019050610a786000830184610a54565b92915050565b610a8781610a42565b8114610a9257600080fd5b50565b600081359050610aa481610a7e565b92915050565b600060208284031215610ac057610abf6109b5565b5b6000610ace84828501610a95565b91505092915050565b7f4e487b7100000000000000000000000000000000000000000000000000000000600052602160045260246000fd5b60038110610b1757610b16610ad7565b5b50565b6000819050610b2882610b06565b919050565b6000610b3882610b1a565b9050919050565b610b4881610b2d565b82525050565b6000602082019050610b636000830184610b3f565b92915050565b600081519050919050565b600082825260208201905092915050565b6000819050602082019050919050565b610b9e81610a42565b82525050565b6000610bb08383610b95565b60208301905092915050565b6000602082019050919050565b6000610bd482610b69565b610bde8185610b74565b9350610be983610b85565b8060005b83811015610c1a578151610c018882610ba4565b9750610c0c83610bbc565b925050600181019050610bed565b5085935050505092915050565b60006020820190508181036000830152610c418184610bc9565b905092915050565b60038110610c5657600080fd5b50565b600081359050610c6881610c49565b92915050565b60008060408385031215610c8557610c846109b5565b5b6000610c9385828601610a95565b9250506020610ca485828601610c59565b9150509250929050565b600080fd5b600080fd5b6000601f19601f8301169050919050565b7f4e487b7100000000000000000000000000000000000000000000000000000000600052604160045260246000fd5b610d0182610cb8565b810181811067ffffffffffffffff82111715610d2057610d1f610cc9565b5b80604052505050565b6000610d336109ab565b9050610d3f8282610cf8565b919050565b600067ffffffffffffffff821115610d5f57610d5e610cc9565b5b610d6882610cb8565b9050602081019050919050565b82818337600083830152505050565b6000610d97610d9284610d44565b610d29565b905082815260208101848484011115610db357610db2610cb3565b5b610dbe848285610d75565b509392505050565b600082601f830112610ddb57610dda610cae565b5b8135610deb848260208601610d84565b91505092915050565b60008060408385031215610e0b57610e0a6109b5565b5b600083013567ffffffffffffffff811115610e2957610e286109ba565b5b610e3585828601610dc6565b925050602083013567ffffffffffffffff811115610e5657610e556109ba565b5b610e6285828601610dc6565b9150509250929050565b600081519050919050565b600082825260208201905092915050565b60005b83811015610ea6578082015181840152602081019050610e8b565b83811115610eb5576000848401525b50505050565b6000610ec682610e6c565b610ed08185610e77565b9350610ee0818560208601610e88565b610ee981610cb8565b840191505092915050565b610efd816109bf565b82525050565b600060a0820190508181036000830152610f1d8188610ebb565b90508181036020830152610f318187610ebb565b9050610f406040830186610b3f565b610f4d6060830185610ef4565b610f5a6080830184610ef4565b9695505050505050565b7f4f6e6c792074686520617574686f726974792063616e20706572666f726d207460008201527f68697320616374696f6e2e000000000000000000000000000000000000000000602082015250565b6000610fc0602b83610e77565b9150610fcb82610f64565b604082019050919050565b60006020820190508181036000830152610fef81610fb3565b9050919050565b7f4e487b7100000000000000000000000000000000000000000000000000000000600052602260045260246000fd5b6000600282049050600182168061103d57607f821691505b6020821081036110505761104f610ff6565b5b50919050565b7f41616468616172206e6f7420666f756e642e0000000000000000000000000000600082015250565b600061108c601283610e77565b915061109782611056565b602082019050919050565b600060208201905081810360008301526110bb8161107f565b9050919050565b7f4161646861617220616c726561647920726567697374657265642e0000000000600082015250565b60006110f8601b83610e77565b9150611103826110c2565b602082019050919050565b60006020820190508181036000830152611127816110eb565b9050919050565b60008190508160005260206000209050919050565b60006020601f8301049050919050565b600082821b905092915050565b6000600883026111907fffffffffffffffffffffffffffffffffffffffffffffffffffffffffffffffff82611153565b61119a8683611153565b95508019841693508086168417925050509392505050565b6000819050919050565b60006111d76111d26111cd846109bf565b6111b2565b6109bf565b9050919050565b6000819050919050565b6111f1836111bc565b6112056111fd826111de565b848454611160565b825550505050565b600090565b61121a61120d565b6112258184846111e8565b505050565b5b818110156112495761123e600082611212565b60018101905061122b565b5050565b601f82111561128e5761125f8161112e565b61126884611143565b81016020851015611277578190505b61128b61128385611143565b83018261122a565b50505b505050565b600082821c905092915050565b60006112b160001984600802611293565b1980831691505092915050565b60006112ca83836112a0565b9150826002028217905092915050565b6112e382610e6c565b67ffffffffffffffff8111156112fc576112fb610cc9565b5b6113068254611025565b61131182828561124d565b600060209050601f8311600181146113445760008415611332578287015190505b61133c85826112be565b8655506113a4565b601f1984166113528661112e565b60005b8281101561137a57848901518255600182019150602085019450602081019050611355565b868310156113975784890151611393601f8916826112a0565b8355505b6001600288020188555050505b505050505050565b600060208201905081810360008301526113c68184610ebb565b90509291505056fea264697066735822122039e519251f345de67eda828e9b855da2660624a49f2ac27181d1d72c22d5820964736f6c634300080f0033",
  "immutableReferences": {},
  "source": "// SPDX-License-Identifier: MIT\r\npragma solidity ^0.8.15;\r\n\r\ncontract KYCVerification {\r\n    \r\n    // Enum for KYC status\r\n    enum KYCStatus { Pending, Accepted, Rejected }\r\n    \r\n    // Struct to hold user KYC details\r\n    struct AadhaarDetails {\r\n        string name;\r\n        string aadhaarNumber;\r\n        KYCStatus status;\r\n        uint256 submissionTime;\r\n        uint256 verificationTime;\r\n    }\r\n    \r\n    // Mapping to store user KYC details by their address\r\n    mapping(address => AadhaarDetails) private aadhaarRecords;\r\n\r\n    // List to store addresses of users who have submitted their Aadhaar details\r\n    address[] public users;\r\n\r\n    // Event for when a user submits a KYC application\r\n    event AadhaarRegistered(address indexed user, string aadhaarNumber);\r\n\r\n    // Event for when an authority verifies a user's KYC application (accepted or rejected)\r\n    event AadhaarVerified(address indexed user, KYCStatus status);\r\n\r\n    // Address of the authority who can approve/reject KYC\r\n    address public authority;\r\n\r\n    // Modifier to restrict actions to only the authority\r\n    modifier onlyAuthority() {\r\n        require(msg.sender == authority, \"Only the authority can perform this action.\");\r\n        _;\r\n    }\r\n\r\n    // Constructor to set the authority address\r\n    constructor(address _authority) {\r\n        require(_authority != address(0), \"Invalid authority address\"); // Ensure authority is a valid address\r\n        authority = _authority;\r\n    }\r\n\r\n    // Function to allow users to register their Aadhaar details\r\n    function registerAadhaar(string memory _name, string memory _aadhaarNumber) public {\r\n        require(bytes(aadhaarRecords[msg.sender].aadhaarNumber).length == 0, \"Aadhaar already registered.\");\r\n        \r\n        aadhaarRecords[msg.sender] = AadhaarDetails({\r\n            name: _name,\r\n            aadhaarNumber: _aadhaarNumber,\r\n            status: KYCStatus.Pending,\r\n            submissionTime: block.timestamp, // Record submission time\r\n            verificationTime: 0 // Verification time is initially 0\r\n        });\r\n\r\n        users.push(msg.sender);  // Add user address to the list of users\r\n\r\n        emit AadhaarRegistered(msg.sender, _aadhaarNumber);\r\n    }\r\n\r\n    // Function for the authority to verify the Aadhaar details (Accept or Reject)\r\n    function verifyAadhaar(address _user, KYCStatus _status) public onlyAuthority {\r\n        require(bytes(aadhaarRecords[_user].aadhaarNumber).length > 0, \"Aadhaar not found.\");\r\n        \r\n        // Update the KYC status and verification time\r\n        aadhaarRecords[_user].status = _status;\r\n        aadhaarRecords[_user].verificationTime = block.timestamp;\r\n\r\n        emit AadhaarVerified(_user, _status);\r\n    }\r\n\r\n    // Function to get the KYC details of a user\r\n    function getUserKYCDetails(address _user) public view returns (string memory name, string memory aadhaarNumber, KYCStatus status, uint256 submissionTime, uint256 verificationTime) {\r\n        AadhaarDetails memory details = aadhaarRecords[_user];\r\n        return (details.name, details.aadhaarNumber, details.status, details.submissionTime, details.verificationTime);\r\n    }\r\n\r\n    // Function to get the verification status of a user's Aadhaar\r\n    function getVerificationStatus(address _user) public view returns (KYCStatus status) {\r\n        return aadhaarRecords[_user].status;\r\n    }\r\n\r\n    // Function to get all user addresses who have registered their Aadhaar\r\n    function getAllUserApplications() public view onlyAuthority returns (address[] memory) {\r\n        return users;\r\n    }\r\n}\r\n",
  "sourcePath": "C:\\Users\\Jeevitha R\\Desktop\\Dev_Track\\contracts\\KYCVerification.sol",
  "compiler": {
    "name": "solc",
    "version": "0.8.15+commit.e14f2714.Emscripten.clang"
  },
  "schemaVersion": "3.4.16",
  "updatedAt": "2024-12-13T18:05:47.540Z",
  "networkType": "ethereum",
  "devdoc": {
    "kind": "dev",
    "methods": {},
    "version": 1
  },
  "userdoc": {
    "kind": "user",
    "methods": {},
    "version": 1
  }
}